:020000040800F2
:1000000000000220290700080D0700080F0700085C
:10001000110700081307000815070008000000007A
:1000200000000000000000000000000017070008AA
:1000300019070008000000001B0700081D07000842
:100040007907000879070008790700087907000890
:100050007907000879070008790700087907000880
:100060007907000879070008790700087907000870
:100070007907000879070008790700087907000860
:100080007907000879070008790700087907000850
:100090007907000879070008790700087907000840
:1000A0007907000879070008790700087907000830
:1000B0007907000879070008790700087907000820
:1000C0007907000879070008790700087907000810
:1000D0007907000879070008790700087907000800
:1000E00079070008790700087907000879070008F0
:1000F00079070008790700087907000879070008E0
:1001000079070008790700087907000879070008CF
:1001100079070008790700087907000879070008BF
:1001200079070008790700087907000879070008AF
:10013000790700087907000879070008790700089F
:10014000790700087907000879070008790700088F
:10015000790700087907000879070008790700087F
:10016000790700087907000879070008790700086F
:1001700079070008790700087907000800000000E7
:08018000790700087907000867
:1001880010B5054C237833B9044B13B10448AFF3C9
:1001980000800123237010BD3C04002000000000F3
:1001A800741C000808B5034B1BB103490348AFF39F
:1001B800008008BD0000000040040020741C0008F6
:1001C80053B94AB9002908BF00281CBF4FF0FF31B6
:1001D8004FF0FF3000F074B9ADF1080C6DE904CEB2
:1001E80000F006F8DDF804E0DDE9022304B070470A
:1001F8002DE9F047089E0D4604468846002B4DD150
:100208008A42944668D9B2FA82F252B101FA02F3EC
:10021800C2F1200120FA01F10CFA02FC41EA0308BC
:1002280094404FEA1C45210CB8FBF5FE1FFA8CF7E9
:1002380005FB1E8341EA03430EFB07F199420BD9E4
:100248001CEB03030EF1FF3080F01E81994240F24F
:100258001B81AEF1020E63445B1AA4B2B3FBF5F046
:1002680005FB103344EA034400FB07F7A7420AD909
:100278001CEB040400F1FF3380F00881A74240F230
:10028800058164440238E41B40EA0E4000211EB197
:10029800D4400023C6E90043BDE8F0878B4208D963
:1002A800002E00F0EE800021C6E900050846BDE8F2
:1002B800F087B3FA83F100294AD1AB4202D38242D4
:1002C80000F2F980841A65EB030301209846002E9A
:1002D800E2D0C6E90048DFE702B9FFDEB2FA82F2EF
:1002E800002A40F09180A1EB0C054FEA1C471FFA49
:1002F8008CFE0121B5FBF7F307FB1350250C45EAEB
:1003080000450EFB03F0A84208D91CEB050503F1D4
:10031800FF3802D2A84200F2CB8043462D1AA4B27D
:10032800B5FBF7F007FB105544EA05440EFB00FE49
:10033800A64508D91CEB040400F1FF3502D2A645F6
:1003480000F2BB802846A4EB0E0440EA03409EE777
:10035800C1F120078B4022FA07FC4CEA030C20FA73
:1003680007F405FA01F31C43FD404FEA1C4900FA63
:1003780001F3B5FBF9F8200C1FFA8CFE09FB1855A0
:1003880040EA054508FB0EF0A84202FA01F20BD933
:100398001CEB050508F1FF3A80F08880A84240F27E
:1003A8008580A8F1020865442D1AA4B2B5FBF9F0BE
:1003B80009FB105544EA054500FB0EFEAE4508D979
:1003C8001CEB050500F1FF346CD2AE456AD9023842
:1003D800654440EA0840A0FB0294A5EB0E05A5423F
:1003E800C846A64656D353D05EB1B3EB080265EBB8
:1003F8000E0505FA07F722FA01F3CD401F43C6E9B7
:1004080000750021BDE8F087C2F1200320FA03F14E
:100418000CFA02FC25FA03F395400D434FEA1C47FA
:100428001FFA8CFEB3FBF7F107FB11302B0C43EAE4
:10043800004301FB0EF0984204FA02F408D91CEBC1
:10044800030301F1FF382FD298422DD902396344B2
:100458001B1AADB2B3FBF7F007FB103345EA0345AF
:1004680000FB0EF3AB4208D91CEB050500F1FF3881
:1004780016D2AB4214D902386544ED1A40EA01415C
:1004880038E73146304607E78646E5E61846FAE695
:100498004B45A9D2B9EB020864EB0C0E0138A3E76F
:1004A8004046EAE7204694E74146D1E7D0467BE755
:1004B800023B654432E7084609E76444023842E7EC
:1004C800704700BF30B589B00024039404940594A4
:1004D800069407940094194B1A6B42F004021A63AD
:1004E8001A6B02F004020092009A01941A6B42F00F
:1004F80080021A631A6B02F080020192019A029438
:100508001A6B42F002021A631B6B03F00203029398
:10051800029B0B4D22464FF40051284600F0E0FAAA
:100528004FF400530393012304930594069403A9FD
:10053800284600F0E3F909B030BD00BF003802409A
:100548000008024008B50B480B4B03600B4B436097
:1005580000238360C3604FF480420261436183617A
:10056800C361036200F01CFC00B908BD00F040F84C
:10057800FBE700BF5804002000540040A08601009B
:1005880030B589B00023039304930593069307932A
:100598000268144B9A4201D009B030BD002501957C
:1005A800114C236B43F002032363236B03F0020314
:1005B8000193019BC02303931223049303230693FF
:1005C8000423079303A9094800F098F90295236CBE
:1005D80043F400132364236C03F400130293029B77
:1005E800DAE700BF0054004000380240000402402F
:1005F80072B6FEE700B595B03022002108A801F0D8
:1006080073FA0023039304930593069307930193C6
:10061800204A116C41F080511164126C02F0805232
:100628000192019A02931C4B1A6842F480421A60A4
:100638001B6803F480430293029B012308934FF441
:100648008033099302220E924FF480030F93042300
:100658001093A82111911292139308A800F03AFD63
:1006680098B90F23039302230493002305934FF4AF
:10067800A05306934FF480530793052103A800F075
:100688008FFF20B915B05DF804FBFFF7B1FFFFF746
:10069800AFFF00BF003802400070004008B500F00E
:1006A8008FF8FFF7A7FFFFF70DFFFFF74BFF01F0EC
:1006B8009AF801F093F8044A0021084601F02CF951
:1006C80001F054F8FEE700BF8C1C000882B000213E
:1006D80000910B4B5A6C42F480425A645A6C02F4F3
:1006E80080420092009A01911A6C42F080521A647A
:1006F8001B6C03F080530193019B02B0704700BF4D
:1007080000380240FEE7FEE7FEE7FEE7FEE7704737
:100718007047704708B500F06DF808BD70470000D5
:10072800DFF834D00D480E490E4A002302E0D458B1
:10073800C4500433C4188C42F9D30B4A0B4C002321
:1007480001E013600432A242FBD3FFF7E7FF01F098
:10075800A7F9FFF7A3FF7047000002200000002060
:100768003C040020002300083C040020B4080020BA
:10077800FEE7000010B504460E4B18784FF47A7364
:10078800B3FBF0F30C4A1068B0FBF3F000F0A2F8EA
:1007980068B90F2C01D901200AE0002221464FF048
:1007A800FF3000F05FF8054B1C60002000E00120DE
:1007B80010BD00BF04000020000000200800002039
:1007C80008B50B4B1A6842F400721A601A6842F4B2
:1007D80080621A601A6842F480721A60032000F07E
:1007E8002FF80F20FFF7C6FFFFF770FF002008BDA6
:1007F800003C0240034A1168034B1B780B4413600A
:10080800704700BFAC04002004000020014B1868AA
:10081800704700BFAC04002038B50446FFF7F6FF68
:100828000546B4F1FF3F02D0044B1B781C44FFF788
:10083800EDFF401BA042FAD338BD00BF04000020E2
:10084800074AD36823F4E0631B041B0C000200F47E
:10085800E060034343F0BF6343F40033D360704761
:1008680000ED00E000B5194BDB68C3F30223C3F1C8
:10087800070CBCF1040F28BF4FF0040C03F1040E61
:10088800BEF1060F18D9033B4FF0FF3E0EFA0CFCE1
:1008980021EA0C0199400EFA03F322EA03031943F3
:1008A80000280BDB0901C9B200F1604000F5614086
:1008B80080F800135DF804FB0023E5E700F00F0063
:1008C8000901C9B2024B1954F4E700BF00ED00E07A
:1008D80014ED00E00138B0F1807F0BD24FF0E02337
:1008E8005861054AF02182F82310002098610722F8
:1008F8001A6170470120704700ED00E000230F2BBC
:1009080000F2E48070B582B060E085685E00032480
:10091800B44025EA0405CC68B4402C43846045689B
:1009280025EA02054C68C4F300129A402A43426043
:100938005AE0DC08083450F8246003F007029500F8
:100948000F22AA4026EA020E0A69AA4042EA0E02CB
:1009580040F824205CE0072200E0002202FA0EF2B0
:100968002A4302345A4D45F824205A4A94686FEABB
:100978000C0224EA0C054E6816F4801F01D04CEADC
:100988000405544CA560E46802EA04054E6816F4B0
:10099800001F01D04CEA04054E4CE560646802EA89
:1009A80004054E6816F4003F01D04CEA0405494C92
:1009B8006560246822404D6815F4803F01D04CEAF8
:1009C8000402444C226001330F2B7DD801229A4047
:1009D8000C6804EA020C32EA0404F4D14C6804F00E
:1009E8000304013C012C90D94A6802F00302032A4F
:1009F80009D0C4685D000322AA4024EA02048A6878
:100A0800AA402243C2604A6802F00302022A90D038
:100A180004684FEA430E032202FA0EF224EA0204A3
:100A28004A6802F0030202FA0EF2224302604A68A0
:100A380012F4403FC7D000220192274A546C44F474
:100A480080445464526C02F480420192019A9C08DA
:100A5800A51C1F4A52F8255003F003024FEA820EE4
:100A68000F2202FA0EF225EA02051C4A90423FF4D0
:100A780074AF02F5806290421AD002F5806290420B
:100A880018D002F58062904216D002F5806290423A
:100A980014D002F58062904212D002F58062904232
:100AA80010D002F5806290423FF455AF082255E716
:100AB800012253E7022251E703224FE704224DE7C0
:100AC80005224BE7062249E702B070BD704700BF18
:100AD80000380140003C014000380240000002405C
:100AE8000AB18161704709048161704703685A69D6
:100AF80012F4806F01D1002070476FF480625A6150
:100B080000230363202280F83D2080F83E30026CE9
:100B180042F00402026480F83C30012070472DE95D
:100B2800F04107460D4690461E4624E0FFF76EFE4C
:100B3800069BC01AB04200D8EEB900233B632022BE
:100B480087F83D2087F83E303A6C42F020023A643C
:100B580087F83C3001201EE03B689C6925EA040CBC
:100B68001FFA8CFCBCFA8CFC4FEA5C1CE04511D1E6
:100B7800B6F1FF3FDAD1C5F30743012BECD13B684F
:100B88005B6925EA030C1FFA8CFCBCFA8CFC4FEA63
:100B98005C1CEBE70020BDE8F0812DE9F04105463B
:100BA8000E46174698463DE01A6842F400721A60ED
:100BB8002B686FF480625A6100232B63202285F82A
:100BC8003D2085F83E302A6C42F004022A6485F8FC
:100BD8003C30012034E0FFF719FEA0EB0800B842D2
:100BE80000D8FFB900232B63202285F83D2085F823
:100BF8003E302A6C42F020022A6485F83C300120FD
:100C08001EE02B689C6926EA0404A4B2003C18BFC5
:100C18000124A4B12B685A6912F4806FC4D1B7F1CA
:100C2800FF3FD8D1C6F30743012BEAD12B685C6993
:100C380026EA0404A4B2003C18BF0124E9E7002016
:100C4800BDE8F081F0B583B004460D4616461F4650
:100C5800C36A082B0DD0012B0BD013F5803F08D0A9
:100C6800036B122B0AD10268136843F48073136074
:100C780004E02268136843F48073136000973346D6
:100C880000224FF001112046FFF749FF80B9236980
:100C9800B3F5804F16D1236805F0FE051D613B466C
:100CA800324613492046FFF778FFF8B903B0F0BD84
:100CB80023681B6813F4807F02D04FF40073236409
:100CC8000320F3E7EB11226803F0060343F0F00377
:100CD80013613B46324607492046FFF75EFF18B9C5
:100CE8002368EDB21D61DAE70120DFE70120DDE7C7
:100CF800020001000800010070B504460D461646C2
:100D080023685B6913F0800F1CD12046FFF7EEFEC5
:100D1800D0B9B5F1FF3FF3D0FFF778FD801BA842AB
:100D280001D8002DECD100232363202284F83D2034
:100D380084F83E30226C42F02002226484F83C3071
:100D4800012000E0002070BD0120FCE770B50446DA
:100D58000D46164623685B6913F0040F1CD1204624
:100D6800FFF7C4FED0B9B5F1FF3FF3D0FFF74EFD52
:100D7800801BA84201D8002DECD100232363202238
:100D880084F83D2084F83E30226C42F02002226430
:100D980084F83C30012000E0002070BD0120FCE711
:100DA800002800F0CC8070B5044690F83D30002B48
:100DB80077D0242384F83D302268136823F0010398
:100DC80013602268136843F40043136022681368B1
:100DD80023F40043136000F099FC62685A4B9A426E
:100DE80064D85A4B98428CBF00230123002B40F053
:100DF800A8805749A1FB00318B0C25686A6822F04E
:100E08003F0242EA91426A6021680A6A22F03F0280
:100E180066684D4DAE424FD8013313430B622168CB
:100E2800CA6922F44F4222F0FF026668464B9E428E
:100E38004CD8431E7600B3FBF6F3013340F6FC7042
:100E4800034278D0C3F30B031343CB6121680B68CB
:100E580023F0C003E269206A024313430B60216850
:100E68008B6823F4034323F0FF032269E0680243FD
:100E780013438B602168CB6823F0FF036269A06984
:100E880002431343CB602268136843F001031360E5
:100E980000202064202384F83D30206384F83E003D
:100EA80070BD80F83C30FFF76BFB82E7294B984216
:100EB8008CBF0023012399E74FF4967505FB03F3D4
:100EC800254DA5FB03539B090133A6E7A368BBB9CE
:100ED800451E06EB460CB5FBFCF50135C5F30B05C5
:100EE800B5FA85F56D0945BBC3B9013806EB46036C
:100EF800B0FBF3F30133C3F30B0343F40043A3E75D
:100F0800451E06EB860C0CEB8C0CB5FBFCF501358D
:100F1800C5F30B05B5FA85F56D09E4E7013806EB6D
:100F2800860303EB8303B0FBF3F30133C3F30B0333
:100F380043F4404388E7042386E7012384E701203C
:100F480070470120ACE700BFA08601007F841E0027
:100F580083DE1B43FF083D00D34D62102DE9F043AB
:100F680085B004460F46914698460C9EFFF74EFC06
:100F7800054694F83D00C0B2202804D00227384620
:100F880005B0BDE8F0830095192301224F4920469A
:100F9800FFF7C5FD002840F0928094F83C30012B03
:100FA80000F08F80012384F83C3023681A6812F01F
:100FB800010F03D11A6842F001021A60226813680F
:100FC80023F400631360212384F83D30102384F850
:100FD8003E3000232364C4F82490A4F82A80638D4B
:100FE80023853B4BE3622B46324639462046FFF7C2
:100FF80029FE0746002866D10023039323685A690F
:1010080003929B690393039B11E0236C042B01D08B
:101018000127B4E72268136843F400731360F7E705
:101028002A4631462046FFF791FE00282ED1238D0F
:10103800002B36D02A4631462046FFF75DFE0028B1
:10104800E3D1626A236812781A61606A431C63629A
:10105800618D89B2013989B26185238D013B9BB2CB
:1010680023852268516911F0040FD9D0002BD7D0FD
:1010780043781361636A01336362638D9BB2013BFA
:101088009BB26385238D013B2385C9E7236C042B21
:1010980001D0012773E72268136843F400731360D3
:1010A800F7E72268136843F400731360202384F879
:1010B8003D30002384F83E3084F83C305FE7022757
:1010C8005DE702275BE7012759E700BF0200100030
:1010D8000000FFFF002800F0E08170B582B00446F0
:1010E800036813F0010F3BD09F4B9B6803F00C0380
:1010F800042B2CD09C4B9B6803F00C03082B21D0AD
:101108006368B3F5803F4FD0B3F5A02F52D0964B0C
:101118001A6822F480321A601A6822F480221A604F
:101128006368002B50D0FFF771FB05468E4B1B6898
:1011380013F4003F14D1FFF769FB401B6428F5D96D
:101148000320B1E1884B5B6813F4800FD8D0864B3D
:101158001B6813F4003F03D06368002B00F09F81E5
:10116800236813F0020F54D07F4B9B6813F00C0FC9
:101178003ED07D4B9B6803F00C03082B33D0E3680B
:10118800002B68D0794B01221A60FFF73FFB054618
:10119800754B1B6813F0020F54D1FFF737FB401B48
:1011A8000228F5D903207FE16F4A136843F480339E
:1011B8001360B5E76C4B1A6842F480221A601A680B
:1011C80042F480321A60ABE7FFF720FB0546664B16
:1011D8001B6813F4003FC3D0FFF718FB401B6428BB
:1011E800F5D9032060E1604B5B6813F4800FC6D12A
:1011F8005D4B1B6813F0020F03D0E368012B40F02E
:101208005081594A136823F0F803216943EAC1035E
:101218001360236813F0080F42D063696BB3534B14
:101228000122C3F8802EFFF7F1FA05464E4B5B6F9B
:1012380013F0020F34D1FFF7E9FA401B0228F5D961
:10124800032031E1484A136823F0F803216943EA8F
:10125800C1031360DDE7454B00221A60FFF7D6FA99
:101268000546414B1B6813F0020FD2D0FFF7CEFAA8
:10127800401B0228F5D9032016E13C4B0022C3F895
:10128800802EFFF7C3FA0546374B5B6F13F0020F4A
:1012980006D0FFF7BBFA401B0228F5D9032003E16B
:1012A800236813F0040F77D02F4B1B6C13F0805F6B
:1012B80033D1002301932C4B1A6C42F080521A64EC
:1012C8001B6C03F080530193019B0125284B1B687D
:1012D80013F4807F23D0A368012B34D0052B38D09A
:1012E800214B1A6F22F001021A671A6F22F00402CA
:1012F8001A67A368002B3DD0FFF788FA06461A4BF9
:101308001B6F13F0020F46D1FFF780FA801B41F2E2
:1013180088339842F3D90320C6E00025D6E7144A5B
:10132800136843F480731360FFF770FA0646104B96
:101338001B6813F4807FCED1FFF768FA801B022860
:10134800F5D90320B0E0084A136F43F0010313678F
:10135800CFE7054B1A6F42F004021A671A6F42F082
:1013680001021A67C5E700BF003802400000474283
:1013780000700040FFF74AFA0646524B1B6F13F005
:10138800020F08D0FFF742FA801B41F288339842D7
:10139800F3D9032088E0EDB9A369002B00F083801E
:1013A800484A926802F00C02082A51D0022B17D042
:1013B800454B00221A66FFF729FA0446414B1B6881
:1013C80013F0007F42D0FFF721FA001B0228F5D95D
:1013D800032069E03B4A136C23F080531364DBE776
:1013E800394B00221A66FFF711FA0546354B1B6880
:1013F80013F0007F06D0FFF709FA401B0228F5D941
:10140800032051E0E369226A1343626A43EA8213C4
:10141800A26A5208013A43EA0243E26A43EA0263D3
:10142800284A5360284B01221A66FFF7EFF9044651
:10143800244B1B6813F0007F06D1FFF7E7F9001B68
:101448000228F5D903202FE000202DE000202BE012
:10145800012B2BD01B4B5B6803F48001E26991429E
:1014680026D103F03F02216A8A4223D1616A47F6F6
:10147800C0721A40B2EB811F1ED103F44031A26A38
:101488005208013AB1EB024F18D103F07063E26AD7
:10149800B3EB026F14D1002006E001207047012051
:1014A80002E0012000E0002002B070BD0120FBE74F
:1014B8000120F9E70120F7E70120F5E70120F3E72C
:1014C8000120F1E7003802400000474208B5314BDF
:1014D8009B6803F00C03042B57D0082B57D12D4BD6
:1014E8005A6802F03F025B6813F4800F2AD0294B38
:1014F8005968C1F3881C4FEA4C11B1EB0C006EEB34
:101508000E0E4FEA8E1343EA90638101091A63EBCA
:101518000E03DB0043EA5173C90011EB0C0C43F1D5
:101528000003590200234FEA4C2041EADC51FEF740
:1015380047FE184B5B68C3F3014301335B00B0FB04
:10154800F3F025E0134B5968C1F3881C4FEA4C119E
:10155800B1EB0C006EEB0E0E4FEA8E1343EA90636C
:101568008101091A63EB0E03DB0043EA5173C900DA
:1015780011EB0C0C43F10003990200234FEA8C2075
:1015880041EA9C51FEF71CFED3E7034800E00348FC
:1015980008BD00BF0038024000127A000024F400A1
:1015A800002800F09B8070B50D4604464F4B1B6821
:1015B80003F007038B4208D2CBB24C4A137013686E
:1015C80003F007038B4240F08B80236813F0020F6F
:1015D80017D013F0040F04D0454A936843F4E0533E
:1015E8009360236813F0080F04D0414A936843F4CA
:1015F800604393603E4A936823F0F003A1680B436D
:101608009360236813F0010F32D06368012B21D057
:101618009A1E012A25D9364A126812F0020F61D0A3
:1016280033498A6822F0030213438B60FFF7EEF810
:1016380006462F4B9B6803F00C036268B3EB820FDE
:1016480016D0FFF7E3F8801B41F288339842F0D9AF
:10165800032042E0264A126812F4003FE0D101203C
:101668003BE0234A126812F0007FD9D1012034E010
:101678001E4B1B6803F00703AB4207D9EAB21B4BAA
:101688001A701B6803F00703AB422DD1236813F0CF
:10169800040F06D0164A936823F4E053E1680B431D
:1016A8009360236813F0080F07D0114A936823F456
:1016B8006043216943EAC1039360FFF707FF0C4BBE
:1016C8009B68C3F303130B4AD35CD8400A4B1860DA
:1016D8000A4B1868FFF74EF8002070BD01207047CC
:1016E8000120FAE70120F8E70120F6E7003C024074
:1016F80000380240981C0008000000200800002064
:10170800014B1868704700BF0000002008B5FFF7BC
:10171800F7FF044B9B68C3F38223034AD35CD8408A
:1017280008BD00BF00380240A81C000800B585B0FD
:101738008DF80C008DF80D100A230093022303AADC
:1017480078210348FFF70AFC05B05DF804FB00BFE9
:101758005804002008B501460020FFF7E7FF08BD40
:1017680008B501464020FFF7E1FF08BD38B5002560
:101778000BE00E4B03EBC513185DFFF7F1FF0134C7
:10178800A4B27F2CF5D90135ADB2072D0CD8A5F13F
:101798005000C0B2FFF7DEFF0020FFF7DBFF10208C
:1017A800FFF7D8FF0024ECE738BD00BFB0040020E5
:1017B80008B5002109E0084A02EBC112D0540133F0
:1017C8009BB27F2BF7D9013189B2072901D80023B1
:1017D800F7E7FFF7CBFF08BDB004002008B50020ED
:1017E800FFF7E6FF08BD08B54FF4FA70FFF714F8E5
:1017F800AE20FFF7AFFF2020FFF7ACFF1020FFF768
:10180800A9FFB020FFF7A6FF0020FFF7A3FF1020D5
:10181800FFF7A0FFC820FFF79DFF4020FFF79AFFC2
:101828008120FFF797FFFF20FFF794FFA120FFF724
:1018380091FFA620FFF78EFFA820FFF78BFF3F2020
:10184800FFF788FFA420FFF785FFD320FFF782FF6B
:101858000020FFF77FFFD520FFF77CFFF020FFF780
:1018680079FFD920FFF776FF2220FFF773FFDA20F0
:10187800FFF770FF1220FFF76DFFDB20FFF76AFF0D
:101888002020FFF767FF8D20FFF764FF1420FFF784
:1018980061FFAF20FFF75EFFFFF7A0FF08BD000064
:1018A80083B27F2B33D8002931DB3F292FDCC2B12B
:1018B8000B46002913DBDA104B4201F0070103F055
:1018C800070358BF59424FF0010C0CFA01FC114BA9
:1018D80003EBC213195C41EA0C0119547047CB1D84
:1018E800E9E70B46002913DBDA104B4201F0070148
:1018F80003F0070358BF59424FF0010C0CFA01FCE2
:10190800044B03EBC213195C21EA0C01195470470C
:10191800CB1DE9E7B00400202DE9F84F83B27F2BF7
:1019280007D8804689469346002902DB3F2940F3C1
:10193800AF80FFF71BFFBDE8F88F4FF000080027C6
:1019480023E005EB080004EB0901FB0013FA81F121
:1019580005EB071306EB8602C2EBC20C4E4A624443
:101968001344DA78224102F0010209B200B2FFF70B
:1019780097FF0134E4B2072CE3D90135EDB20F2DFE
:1019880001D80024F7E70137FFB2012F01D800255D
:10199800F5E708F110080FFA88F80AF1030A55E08C
:1019A8000133DBB2012B51D81E4603EB8302C2EB95
:1019B800C2023948825CBA42F2D103EB8302C2EB1D
:1019C800C202024450784A1C1BF802209042E7D118
:1019D800B8F17E0F03DCC8F17F030F2BAFDC09F1F0
:1019E80010090FFA89F9C9F13F030F2BA5DC4FF055
:1019F80000082BE00023D5E705EB080004EB0903FA
:101A0800F10011FA83F105EBC603244A02EB071231
:101A1800D25C224102F0010209B200B2FFF740FF96
:101A28000134E4B2072CE7D90135EDB2072D01D80E
:101A38000024F7E70136F6B2012E01D80025F5E7B4
:101A480008F108080FFA88F80AF1010A51461BF84C
:101A58000A70002F3FF46DAFA02FCBD817F0800F7E
:101A6800F4D1203F3FF565AFB8F17E0F03DCC8F134
:101A78007F03072B0ADC09F110090FFA89F9C9F16C
:101A88003F030F2B7FF755AF4FF000080026D3E731
:101A98004FF0000ADAE700BFB01C0008F81C000885
:101AA80070B50D4E0D4D761BB61006D0002455F8B6
:101AB800043B01349847A642F9D1094E094D761BDB
:101AC80000F0D4F8B61006D0002455F8043B0134D1
:101AD8009847A642F9D170BDF4220008F422000804
:101AE800FC220008F4220008830730B548D0541EB1
:101AF800002A3FD0CAB2034601E0013C3AD303F8BA
:101B0800012B9D07F9D1032C2DD9CDB245EA052526
:101B18000F2C45EA054536D9A4F1100222F00F0C26
:101B280003F1200EE6444FEA121C03F1100242E9C9
:101B3800045542E9025510327245F8D10CF1010200
:101B480014F00C0F03EB021204F00F0C13D0ACF1DD
:101B5800040323F003030433134442F8045B934261
:101B6800FBD10CF003042CB1CAB21C4403F8012BBE
:101B78009C42FBD130BD64461346002CF4D1F9E7F2
:101B880003461446BFE71A46A446E0E7024B13B1E2
:101B9800024800F005B8704700000000B51B0008B7
:101BA800002301461A46184600F01AB838B5084B03
:101BB800084D5B1B9C1007D0043B1D44013C55F8A5
:101BC80004399847002CF9D1BDE8384000F054B8E2
:101BD80000230008FC220008704700BF704700BFC0
:101BE8002DE9F047DFF87CA00646DAF800009846B1
:101BF8000F469146FFF7F0FF1B4B1B68D3F848418F
:101C080024B365681F2D26DC5EB96B1C0235DAF833
:101C18000000636044F82570FFF7E0FF0020BDE88E
:101C2800F08704EB85010123C1F88890D4F8882156
:101C3800AB401A43022EC4F88821C1F80881E4D1C8
:101C4800D4F88C211343C4F88C31DEE703F5A6746D
:101C5800C3F84841D5E7DAF80000FFF7BFFF4FF0B7
:101C6800FF30DCE738040020E8220008F8B500BFA0
:101C7800F8BC08BC9E467047F8B500BFF8BC08BC65
:041C88009E467047BD
:101C8C00484148414841484148410000000000009B
:101C9C000000000001020304060708090000000010
:101CAC0001020304E6B8A91060028C0000FE9292B7
:101CBC00929292FE00000004047E01407E42427E1D
:101CCC00427E42427E4000E5BAA60000FC24242459
:101CDC00FC252624FC242424040040308F80844CD2
:101CEC0055252525554C8080800000000000000003
:101CFC00000000000000000000000000000000F8E0
:101D0C0000000000000000333000000000100C0642
:101D1C00100C0600000000000000000040C07840DD
:101D2C00C0784000043F04043F040400007088FCA9
:101D3C0008300000001820FF211E0000F008F00001
:101D4C00E018000000211C031E211E0000F0088872
:101D5C00700000001E2123241927211010160E00DC
:101D6C00000000000000000000000000000000E087
:101D7C00180402000000000718204000000204189C
:101D8C00E00000000040201807000000404080F0F8
:101D9C00804040000202010F01020200000000F02E
:101DAC00000000000101011F010101000000000002
:101DBC000000000080B07000000000000000000077
:101DCC000000000000010101010101010000000000
:101DDC000000000000303000000000000000000097
:101DEC0080601804006018060100000000E0100874
:101DFC000810E000000F102020100F00001010F849
:101E0C00000000000020203F202000000070080887
:101E1C000888700000302824222130000030088807
:101E2C00884830000018202020110E000000C0202F
:101E3C0010F8000000070424243F240000F8088850
:101E4C00880808000019212020110E0000E01088DD
:101E5C0088180000000F112020110E00003808080F
:101E6C00C83808000000003F00000000007088081F
:101E7C0008887000001C222121221C0000E01008A0
:101E8C000810E0000000312222110F00000000C0F9
:101E9C00C000000000000030300000000000008096
:101EAC000000000000008060000000000000804086
:101EBC00201008000001020408102000404040409F
:101ECC0040404000040404040404040000081020F2
:101EDC004080000000201008040201000070480837
:101EEC000808F0000000003036010000C030C8289F
:101EFC00E810E0000718272423140B000000C0385A
:101F0C00E0000000203C23020227382008F88888D3
:101F1C0088700000203F202020110E00C0300808DF
:101F2C0008083800071820202010080008F80808B6
:101F3C000810E000203F202020100F0008F88888AF
:101F4C00E8081000203F20202320180008F888887B
:101F5C00E8081000203F200003000000C0300808F3
:101F6C000838000007182020221E020008F808007C
:101F7C000008F808203F210101213F20000808F843
:101F8C00080800000020203F202000000000080866
:101F9C00F8080800C08080807F00000008F888C026
:101FAC0028180800203F20012638200008F80800D7
:101FBC0000000000203F20202020300008F8F8000E
:101FCC00F8F80800203F003F003F200008F830C020
:101FDC000008F808203F200007183F00E010080810
:101FEC000810E0000F10202020100F0008F808083F
:101FFC000808F000203F210101010000E010080852
:10200C000810E0000F18242438504F0008F8888876
:10201C0088887000203F2000030C30200070880856
:10202C00080838000038202121221C00180808F864
:10203C00080818000000203F2000000008F80800E5
:10204C000008F808001F202020201F0008788800B6
:10205C0000C83808000007380E010000F80800F826
:10206C000008F800033C0700073C030008186880D0
:10207C008068180820302C03032C30200838C80046
:10208C00C83808000000203F200000001008080895
:10209C00C83808002038262120201800000000FE37
:1020AC00020202000000007F40404000000C30C0E3
:1020BC0000000000000000010638C000000202020F
:1020CC00FE000000004040407F00000000000402C1
:1020DC0002020400000000000000000000000000EC
:1020EC0000000000808080808080808000020204DC
:1020FC0000000000000000000000000000008080D4
:10210C00808000000019242222223F2008F8008041
:10211C0080000000003F112020110E000000008004
:10212C0080800000000E1120202011000000008093
:10213C008088F800000E112020103F2000008080C5
:10214C0080800000001F222222221300008080F0D9
:10215C00888888180020203F202000000000808004
:10216C0080808000006B94949493600008F8008049
:10217C0080800000203F210000203F2000809898A4
:10218C00000000000020203F202000000000008004
:10219C009898000000C08080807F000008F8000044
:1021AC0080808000203F24022D302000000808F899
:1021BC00000000000020203F202000008080808054
:1021CC0080808000203F20003F20003F80800080E6
:1021DC0080800000203F210000203F2000008080F4
:1021EC0080800000001F202020201F0080800080A5
:1021FC008000000080FFA12020110E000000008054
:10220C0080808000000E112020A0FF808080800044
:10221C008080800020203F21200001000000808071
:10222C00808080000033242424241900008080E066
:10223C00808000000000001F202000008080000033
:10224C0000808000001F202020103F208080800014
:10225C000080808000010E30080601008080008024
:10226C00008080800F300C030C300F000080800049
:10227C00808080000020312E0E3120008080800074
:10228C000080808080818E70180601000080808024
:10229C00808080000021302C2221300000000000C2
:1022AC00807C020200000000003F40400000000063
:1022BC00FF00000000000000FF0000000002027C94
:1022CC00800000000040403F0000000000060101BB
:1022DC0002020404000000000000000010000020B6
:0822EC000CDFFF7F0100000080
:0822F400951B0008AD01000874
:0422FC00890100084C
:102300000024F400010000001000000000000000A4
:1023100000000000FC02002064030020CC03002029
:1023200000000000000000000000000000000000AD
:10233000000000000000000000000000000000009D
:10234000000000000000000000000000000000008D
:10235000000000000000000000000000000000007D
:10236000000000000000000000000000000000006D
:10237000000000000000000000000000000000005D
:10238000000000000000000000000000000000004D
:10239000000000000000000000000000000000003D
:1023A000000000000000000000000000000000002D
:1023B000000000000000000001000000000000001C
:1023C0000E33CDAB34126DE6ECDE05000B000000E1
:1023D00000000000000000000000000000000000FD
:1023E00000000000000000000000000000000000ED
:1023F00000000000000000000000000000000000DD
:1024000000000000000000000000000000000000CC
:0C2730000000000000000000B0080020C5
:0400000508000729BF
:00000001FF
